{
  "_format": "hh-sol-artifact-1",
  "contractName": "TodoList",
  "sourceName": "contracts/TodoList.sol",
  "abi": [
    {
      "inputs": [
        {
          "internalType": "string",
          "name": "_content",
          "type": "string"
        },
        {
          "internalType": "bool",
          "name": "_completed",
          "type": "bool"
        }
      ],
      "name": "createTask",
      "outputs": [],
      "stateMutability": "nonpayable",
      "type": "function"
    },
    {
      "inputs": [],
      "name": "getCount",
      "outputs": [
        {
          "internalType": "uint256",
          "name": "",
          "type": "uint256"
        }
      ],
      "stateMutability": "view",
      "type": "function"
    },
    {
      "inputs": [],
      "name": "getTask",
      "outputs": [
        {
          "components": [
            {
              "internalType": "uint256",
              "name": "id",
              "type": "uint256"
            },
            {
              "internalType": "string",
              "name": "content",
              "type": "string"
            },
            {
              "internalType": "bool",
              "name": "completed",
              "type": "bool"
            }
          ],
          "internalType": "struct TodoList.Task[]",
          "name": "",
          "type": "tuple[]"
        }
      ],
      "stateMutability": "view",
      "type": "function"
    },
    {
      "inputs": [],
      "name": "taskCount",
      "outputs": [
        {
          "internalType": "uint256",
          "name": "",
          "type": "uint256"
        }
      ],
      "stateMutability": "view",
      "type": "function"
    }
  ],
  "bytecode": "0x60806040526000805534801561001457600080fd5b50610833806100246000396000f3fe608060405234801561001057600080fd5b506004361061004c5760003560e01c806316f7043014610051578063a31662d21461006d578063a87d942c1461008b578063b6cb58a5146100a9575b600080fd5b61006b600480360381019061006691906103bc565b6100c7565b005b610075610177565b604051610082919061054f565b60405180910390f35b61009361028d565b6040516100a09190610571565b60405180910390f35b6100b1610296565b6040516100be9190610571565b60405180910390f35b60016000808282546100d99190610637565b92505081905550600160405180606001604052806000548152602001848152602001831515815250908060018154018082558091505060019003906000526020600020906003020160009091909190915060008201518160000155602082015181600101908051906020019061015092919061029c565b5060408201518160020160006101000a81548160ff02191690831515021790555050505050565b60606001805480602002602001604051908101604052809291908181526020016000905b828210156102845783829060005260206000209060030201604051806060016040529081600082015481526020016001820180546101d8906106e5565b80601f0160208091040260200160405190810160405280929190818152602001828054610204906106e5565b80156102515780601f1061022657610100808354040283529160200191610251565b820191906000526020600020905b81548152906001019060200180831161023457829003601f168201915b505050505081526020016002820160009054906101000a900460ff1615151515815250508152602001906001019061019b565b50505050905090565b60008054905090565b60005481565b8280546102a8906106e5565b90600052602060002090601f0160209004810192826102ca5760008555610311565b82601f106102e357805160ff1916838001178555610311565b82800160010185558215610311579182015b828111156103105782518255916020019190600101906102f5565b5b50905061031e9190610322565b5090565b5b8082111561033b576000816000905550600101610323565b5090565b600061035261034d846105b1565b61058c565b90508281526020810184848401111561036a57600080fd5b6103758482856106a3565b509392505050565b60008135905061038c816107e6565b92915050565b600082601f8301126103a357600080fd5b81356103b384826020860161033f565b91505092915050565b600080604083850312156103cf57600080fd5b600083013567ffffffffffffffff8111156103e957600080fd5b6103f585828601610392565b92505060206104068582860161037d565b9150509250929050565b600061041c83836104e1565b905092915050565b600061042f826105f2565b6104398185610615565b93508360208202850161044b856105e2565b8060005b8581101561048757848403895281516104688582610410565b945061047383610608565b925060208a0199505060018101905061044f565b50829750879550505050505092915050565b6104a28161068d565b82525050565b60006104b3826105fd565b6104bd8185610626565b93506104cd8185602086016106b2565b6104d6816107d5565b840191505092915050565b60006060830160008301516104f96000860182610531565b506020830151848203602086015261051182826104a8565b91505060408301516105266040860182610499565b508091505092915050565b61053a81610699565b82525050565b61054981610699565b82525050565b600060208201905081810360008301526105698184610424565b905092915050565b60006020820190506105866000830184610540565b92915050565b60006105966105a7565b90506105a28282610717565b919050565b6000604051905090565b600067ffffffffffffffff8211156105cc576105cb6107a6565b5b6105d5826107d5565b9050602081019050919050565b6000819050602082019050919050565b600081519050919050565b600081519050919050565b6000602082019050919050565b600082825260208201905092915050565b600082825260208201905092915050565b600061064282610699565b915061064d83610699565b9250827fffffffffffffffffffffffffffffffffffffffffffffffffffffffffffffffff0382111561068257610681610748565b5b828201905092915050565b60008115159050919050565b6000819050919050565b82818337600083830152505050565b60005b838110156106d05780820151818401526020810190506106b5565b838111156106df576000848401525b50505050565b600060028204905060018216806106fd57607f821691505b6020821081141561071157610710610777565b5b50919050565b610720826107d5565b810181811067ffffffffffffffff8211171561073f5761073e6107a6565b5b80604052505050565b7f4e487b7100000000000000000000000000000000000000000000000000000000600052601160045260246000fd5b7f4e487b7100000000000000000000000000000000000000000000000000000000600052602260045260246000fd5b7f4e487b7100000000000000000000000000000000000000000000000000000000600052604160045260246000fd5b6000601f19601f8301169050919050565b6107ef8161068d565b81146107fa57600080fd5b5056fea264697066735822122076902855ea691fd275f3e3993b8086fc95830e6595b28cfa0b008d3c796899fa64736f6c63430008040033",
  "linkReferences": {},
  "deployedLinkReferences": {}
}